{
  "_format": "hh-sol-artifact-1",
  "contractName": "Lottery",
  "sourceName": "contracts/Lottery.sol",
  "abi": [
    {
      "inputs": [
        {
          "internalType": "address",
          "name": "vrfCoordinatorV2",
          "type": "address"
        },
        {
          "internalType": "uint256",
          "name": "entranceFee",
          "type": "uint256"
        },
        {
          "internalType": "bytes32",
          "name": "keyHash",
          "type": "bytes32"
        },
        {
          "internalType": "uint64",
          "name": "subscriptionId",
          "type": "uint64"
        },
        {
          "internalType": "uint32",
          "name": "callbackGasLimit",
          "type": "uint32"
        }
      ],
      "stateMutability": "nonpayable",
      "type": "constructor"
    },
    {
      "inputs": [],
      "name": "Lottery__NotEnoughETHEntered",
      "type": "error"
    },
    {
      "inputs": [],
      "name": "Lottery__TransferFailed",
      "type": "error"
    },
    {
      "inputs": [
        {
          "internalType": "address",
          "name": "have",
          "type": "address"
        },
        {
          "internalType": "address",
          "name": "want",
          "type": "address"
        }
      ],
      "name": "OnlyCoordinatorCanFulfill",
      "type": "error"
    },
    {
      "anonymous": false,
      "inputs": [
        {
          "indexed": true,
          "internalType": "uint256",
          "name": "requestId",
          "type": "uint256"
        }
      ],
      "name": "RequestedLotteryWinner",
      "type": "event"
    },
    {
      "anonymous": false,
      "inputs": [
        {
          "indexed": true,
          "internalType": "address",
          "name": "winner",
          "type": "address"
        }
      ],
      "name": "WinnerPicked",
      "type": "event"
    },
    {
      "anonymous": false,
      "inputs": [
        {
          "indexed": true,
          "internalType": "address",
          "name": "player",
          "type": "address"
        }
      ],
      "name": "participatedEvent",
      "type": "event"
    },
    {
      "inputs": [],
      "name": "getEntranceFee",
      "outputs": [
        {
          "internalType": "uint256",
          "name": "",
          "type": "uint256"
        }
      ],
      "stateMutability": "view",
      "type": "function"
    },
    {
      "inputs": [
        {
          "internalType": "uint256",
          "name": "index",
          "type": "uint256"
        }
      ],
      "name": "getPlayer",
      "outputs": [
        {
          "internalType": "address",
          "name": "",
          "type": "address"
        }
      ],
      "stateMutability": "view",
      "type": "function"
    },
    {
      "inputs": [],
      "name": "getRecentWinner",
      "outputs": [
        {
          "internalType": "address",
          "name": "",
          "type": "address"
        }
      ],
      "stateMutability": "view",
      "type": "function"
    },
    {
      "inputs": [],
      "name": "lotteryParticipate",
      "outputs": [],
      "stateMutability": "payable",
      "type": "function"
    },
    {
      "inputs": [
        {
          "internalType": "uint256",
          "name": "requestId",
          "type": "uint256"
        },
        {
          "internalType": "uint256[]",
          "name": "randomWords",
          "type": "uint256[]"
        }
      ],
      "name": "rawFulfillRandomWords",
      "outputs": [],
      "stateMutability": "nonpayable",
      "type": "function"
    },
    {
      "inputs": [],
      "name": "requestRandomWinner",
      "outputs": [],
      "stateMutability": "nonpayable",
      "type": "function"
    }
  ],
  "bytecode": "0x6101406040523480156200001257600080fd5b5060405162000ed438038062000ed4833981810160405281019062000038919062000255565b848073ffffffffffffffffffffffffffffffffffffffff1660808173ffffffffffffffffffffffffffffffffffffffff1681525050508360a081815250508473ffffffffffffffffffffffffffffffffffffffff1660c08173ffffffffffffffffffffffffffffffffffffffff16815250508260e081815250508167ffffffffffffffff166101008167ffffffffffffffff16815250508063ffffffff166101208163ffffffff16815250505050505050620002dd565b600080fd5b600073ffffffffffffffffffffffffffffffffffffffff82169050919050565b60006200012182620000f4565b9050919050565b620001338162000114565b81146200013f57600080fd5b50565b600081519050620001538162000128565b92915050565b6000819050919050565b6200016e8162000159565b81146200017a57600080fd5b50565b6000815190506200018e8162000163565b92915050565b6000819050919050565b620001a98162000194565b8114620001b557600080fd5b50565b600081519050620001c9816200019e565b92915050565b600067ffffffffffffffff82169050919050565b620001ee81620001cf565b8114620001fa57600080fd5b50565b6000815190506200020e81620001e3565b92915050565b600063ffffffff82169050919050565b6200022f8162000214565b81146200023b57600080fd5b50565b6000815190506200024f8162000224565b92915050565b600080600080600060a08688031215620002745762000273620000ef565b5b6000620002848882890162000142565b955050602062000297888289016200017d565b9450506040620002aa88828901620001b8565b9350506060620002bd88828901620001fd565b9250506080620002d0888289016200023e565b9150509295509295909350565b60805160a05160c05160e0516101005161012051610b996200033b60003960006103cf015260006103ac0152600061038b0152600061034f01526000818161013b015261024b01526000818161016101526101b50152610b996000f3fe6080604052600436106100555760003560e01c806309bc33a71461005a5780631fe543e314610085578063473f1ddc146100ae57806349ec9c56146100d9578063522a1f0b146100e3578063e55ae4e8146100fa575b600080fd5b34801561006657600080fd5b5061006f610137565b60405161007c9190610684565b60405180910390f35b34801561009157600080fd5b506100ac60048036038101906100a79190610838565b61015f565b005b3480156100ba57600080fd5b506100c361021f565b6040516100d091906108d5565b60405180910390f35b6100e1610249565b005b3480156100ef57600080fd5b506100f861034b565b005b34801561010657600080fd5b50610121600480360381019061011c91906108f0565b610485565b60405161012e91906108d5565b60405180910390f35b60007f0000000000000000000000000000000000000000000000000000000000000000905090565b7f000000000000000000000000000000000000000000000000000000000000000073ffffffffffffffffffffffffffffffffffffffff163373ffffffffffffffffffffffffffffffffffffffff161461021157337f00000000000000000000000000000000000000000000000000000000000000006040517f1cf993f400000000000000000000000000000000000000000000000000000000815260040161020892919061091d565b60405180910390fd5b61021b82826104cc565b5050565b6000600160009054906101000a900473ffffffffffffffffffffffffffffffffffffffff16905090565b7f00000000000000000000000000000000000000000000000000000000000000003410156102a3576040517fec269fd100000000000000000000000000000000000000000000000000000000815260040160405180910390fd5b6000339080600181540180825580915050600190039060005260206000200160009091909190916101000a81548173ffffffffffffffffffffffffffffffffffffffff021916908373ffffffffffffffffffffffffffffffffffffffff1602179055503373ffffffffffffffffffffffffffffffffffffffff167f3eb666eb67b17b0b053c52c753afeaf2408427aa6fa5268ad87e7d60d313326860405160405180910390a2565b60007f000000000000000000000000000000000000000000000000000000000000000073ffffffffffffffffffffffffffffffffffffffff16635d3b1d307f00000000000000000000000000000000000000000000000000000000000000007f000000000000000000000000000000000000000000000000000000000000000060037f000000000000000000000000000000000000000000000000000000000000000060036040518663ffffffff1660e01b81526004016104109594939291906109f9565b6020604051808303816000875af115801561042f573d6000803e3d6000fd5b505050506040513d601f19601f820116820180604052508101906104539190610a61565b9050807febf56642252004c18a776f30d528e7a0ce8c5db14b6596fb6550f630c8a24c6c60405160405180910390a250565b600080828154811061049a57610499610a8e565b5b9060005260206000200160009054906101000a900473ffffffffffffffffffffffffffffffffffffffff169050919050565b60008080549050826000815181106104e7576104e6610a8e565b5b60200260200101516104f99190610aec565b905060008082815481106105105761050f610a8e565b5b9060005260206000200160009054906101000a900473ffffffffffffffffffffffffffffffffffffffff16905080600160006101000a81548173ffffffffffffffffffffffffffffffffffffffff021916908373ffffffffffffffffffffffffffffffffffffffff16021790555060008173ffffffffffffffffffffffffffffffffffffffff16476040516105a490610b4e565b60006040518083038185875af1925050503d80600081146105e1576040519150601f19603f3d011682016040523d82523d6000602084013e6105e6565b606091505b5050905080610621576040517f1c94012000000000000000000000000000000000000000000000000000000000815260040160405180910390fd5b8173ffffffffffffffffffffffffffffffffffffffff167f5b690ec4a06fe979403046eaeea5b3ce38524683c3001f662c8b5a829632f7df60405160405180910390a25050505050565b6000819050919050565b61067e8161066b565b82525050565b60006020820190506106996000830184610675565b92915050565b6000604051905090565b600080fd5b600080fd5b6106bc8161066b565b81146106c757600080fd5b50565b6000813590506106d9816106b3565b92915050565b600080fd5b6000601f19601f8301169050919050565b7f4e487b7100000000000000000000000000000000000000000000000000000000600052604160045260246000fd5b61072d826106e4565b810181811067ffffffffffffffff8211171561074c5761074b6106f5565b5b80604052505050565b600061075f61069f565b905061076b8282610724565b919050565b600067ffffffffffffffff82111561078b5761078a6106f5565b5b602082029050602081019050919050565b600080fd5b60006107b46107af84610770565b610755565b905080838252602082019050602084028301858111156107d7576107d661079c565b5b835b8181101561080057806107ec88826106ca565b8452602084019350506020810190506107d9565b5050509392505050565b600082601f83011261081f5761081e6106df565b5b813561082f8482602086016107a1565b91505092915050565b6000806040838503121561084f5761084e6106a9565b5b600061085d858286016106ca565b925050602083013567ffffffffffffffff81111561087e5761087d6106ae565b5b61088a8582860161080a565b9150509250929050565b600073ffffffffffffffffffffffffffffffffffffffff82169050919050565b60006108bf82610894565b9050919050565b6108cf816108b4565b82525050565b60006020820190506108ea60008301846108c6565b92915050565b600060208284031215610906576109056106a9565b5b6000610914848285016106ca565b91505092915050565b600060408201905061093260008301856108c6565b61093f60208301846108c6565b9392505050565b6000819050919050565b61095981610946565b82525050565b600067ffffffffffffffff82169050919050565b61097c8161095f565b82525050565b600061ffff82169050919050565b61099981610982565b82525050565b600063ffffffff82169050919050565b6109b88161099f565b82525050565b6000819050919050565b60006109e36109de6109d984610982565b6109be565b61099f565b9050919050565b6109f3816109c8565b82525050565b600060a082019050610a0e6000830188610950565b610a1b6020830187610973565b610a286040830186610990565b610a3560608301856109af565b610a4260808301846109ea565b9695505050505050565b600081519050610a5b816106b3565b92915050565b600060208284031215610a7757610a766106a9565b5b6000610a8584828501610a4c565b91505092915050565b7f4e487b7100000000000000000000000000000000000000000000000000000000600052603260045260246000fd5b7f4e487b7100000000000000000000000000000000000000000000000000000000600052601260045260246000fd5b6000610af78261066b565b9150610b028361066b565b925082610b1257610b11610abd565b5b828206905092915050565b600081905092915050565b50565b6000610b38600083610b1d565b9150610b4382610b28565b600082019050919050565b6000610b5982610b2b565b915081905091905056fea26469706673582212205c1b818e1c631073109e0ff72455613f517778663a3e5b3dad085277223d29d664736f6c63430008110033",
  "linkReferences": {},
  "deployedLinkReferences": {}
}