{
  "_format": "hh-sol-artifact-1",
  "contractName": "Lottery",
  "sourceName": "contracts/Lottery.sol",
  "abi": [
    {
      "inputs": [
        {
          "internalType": "address",
          "name": "vrfCoordinatorV2",
          "type": "address"
        },
        {
          "internalType": "uint256",
          "name": "entranceFee",
          "type": "uint256"
        },
        {
          "internalType": "bytes32",
          "name": "keyHash",
          "type": "bytes32"
        },
        {
          "internalType": "uint64",
          "name": "subscriptionId",
          "type": "uint64"
        },
        {
          "internalType": "uint32",
          "name": "callbackGasLimit",
          "type": "uint32"
        }
      ],
      "stateMutability": "nonpayable",
      "type": "constructor"
    },
    {
      "inputs": [],
      "name": "Lottery__NotEnoughETHEntered",
      "type": "error"
    },
    {
      "inputs": [],
      "name": "Lottery__TransferFailed",
      "type": "error"
    },
    {
      "inputs": [
        {
          "internalType": "address",
          "name": "have",
          "type": "address"
        },
        {
          "internalType": "address",
          "name": "want",
          "type": "address"
        }
      ],
      "name": "OnlyCoordinatorCanFulfill",
      "type": "error"
    },
    {
      "anonymous": false,
      "inputs": [
        {
          "indexed": true,
          "internalType": "uint256",
          "name": "requestId",
          "type": "uint256"
        }
      ],
      "name": "RequestedLotteryWinner",
      "type": "event"
    },
    {
      "anonymous": false,
      "inputs": [
        {
          "indexed": true,
          "internalType": "address",
          "name": "winner",
          "type": "address"
        }
      ],
      "name": "WinnerPicked",
      "type": "event"
    },
    {
      "anonymous": false,
      "inputs": [
        {
          "indexed": true,
          "internalType": "address",
          "name": "player",
          "type": "address"
        }
      ],
      "name": "participatedEvent",
      "type": "event"
    },
    {
      "inputs": [],
      "name": "getEntranceFee",
      "outputs": [
        {
          "internalType": "uint256",
          "name": "",
          "type": "uint256"
        }
      ],
      "stateMutability": "view",
      "type": "function"
    },
    {
      "inputs": [],
      "name": "getNumberOfPlayers",
      "outputs": [
        {
          "internalType": "uint256",
          "name": "",
          "type": "uint256"
        }
      ],
      "stateMutability": "view",
      "type": "function"
    },
    {
      "inputs": [
        {
          "internalType": "uint256",
          "name": "index",
          "type": "uint256"
        }
      ],
      "name": "getPlayer",
      "outputs": [
        {
          "internalType": "address",
          "name": "",
          "type": "address"
        }
      ],
      "stateMutability": "view",
      "type": "function"
    },
    {
      "inputs": [],
      "name": "getRecentWinner",
      "outputs": [
        {
          "internalType": "address",
          "name": "",
          "type": "address"
        }
      ],
      "stateMutability": "view",
      "type": "function"
    },
    {
      "inputs": [],
      "name": "lotteryParticipate",
      "outputs": [],
      "stateMutability": "payable",
      "type": "function"
    },
    {
      "inputs": [
        {
          "internalType": "uint256",
          "name": "requestId",
          "type": "uint256"
        },
        {
          "internalType": "uint256[]",
          "name": "randomWords",
          "type": "uint256[]"
        }
      ],
      "name": "rawFulfillRandomWords",
      "outputs": [],
      "stateMutability": "nonpayable",
      "type": "function"
    },
    {
      "inputs": [],
      "name": "requestRandomWinner",
      "outputs": [],
      "stateMutability": "nonpayable",
      "type": "function"
    }
  ],
  "bytecode": "0x6101406040523480156200001257600080fd5b5060405162000f2638038062000f26833981810160405281019062000038919062000255565b848073ffffffffffffffffffffffffffffffffffffffff1660808173ffffffffffffffffffffffffffffffffffffffff1681525050508360a081815250508473ffffffffffffffffffffffffffffffffffffffff1660c08173ffffffffffffffffffffffffffffffffffffffff16815250508260e081815250508167ffffffffffffffff166101008167ffffffffffffffff16815250508063ffffffff166101208163ffffffff16815250505050505050620002dd565b600080fd5b600073ffffffffffffffffffffffffffffffffffffffff82169050919050565b60006200012182620000f4565b9050919050565b620001338162000114565b81146200013f57600080fd5b50565b600081519050620001538162000128565b92915050565b6000819050919050565b6200016e8162000159565b81146200017a57600080fd5b50565b6000815190506200018e8162000163565b92915050565b6000819050919050565b620001a98162000194565b8114620001b557600080fd5b50565b600081519050620001c9816200019e565b92915050565b600067ffffffffffffffff82169050919050565b620001ee81620001cf565b8114620001fa57600080fd5b50565b6000815190506200020e81620001e3565b92915050565b600063ffffffff82169050919050565b6200022f8162000214565b81146200023b57600080fd5b50565b6000815190506200024f8162000224565b92915050565b600080600080600060a08688031215620002745762000273620000ef565b5b6000620002848882890162000142565b955050602062000297888289016200017d565b9450506040620002aa88828901620001b8565b9350506060620002bd88828901620001fd565b9250506080620002d0888289016200023e565b9150509295509295909350565b60805160a05160c05160e0516101005161012051610beb6200033b6000396000610415015260006103f2015260006103d10152600061039501526000818161018101526102910152600081816101a701526101fb0152610beb6000f3fe6080604052600436106100705760003560e01c806349ec9c561161004e57806349ec9c56146100f4578063522a1f0b146100fe578063e55ae4e814610115578063fd6673f51461015257610070565b806309bc33a7146100755780631fe543e3146100a0578063473f1ddc146100c9575b600080fd5b34801561008157600080fd5b5061008a61017d565b60405161009791906106d6565b60405180910390f35b3480156100ac57600080fd5b506100c760048036038101906100c2919061088a565b6101a5565b005b3480156100d557600080fd5b506100de610265565b6040516100eb9190610927565b60405180910390f35b6100fc61028f565b005b34801561010a57600080fd5b50610113610391565b005b34801561012157600080fd5b5061013c60048036038101906101379190610942565b6104cb565b6040516101499190610927565b60405180910390f35b34801561015e57600080fd5b50610167610512565b60405161017491906106d6565b60405180910390f35b60007f0000000000000000000000000000000000000000000000000000000000000000905090565b7f000000000000000000000000000000000000000000000000000000000000000073ffffffffffffffffffffffffffffffffffffffff163373ffffffffffffffffffffffffffffffffffffffff161461025757337f00000000000000000000000000000000000000000000000000000000000000006040517f1cf993f400000000000000000000000000000000000000000000000000000000815260040161024e92919061096f565b60405180910390fd5b610261828261051e565b5050565b6000600160009054906101000a900473ffffffffffffffffffffffffffffffffffffffff16905090565b7f00000000000000000000000000000000000000000000000000000000000000003410156102e9576040517fec269fd100000000000000000000000000000000000000000000000000000000815260040160405180910390fd5b6000339080600181540180825580915050600190039060005260206000200160009091909190916101000a81548173ffffffffffffffffffffffffffffffffffffffff021916908373ffffffffffffffffffffffffffffffffffffffff1602179055503373ffffffffffffffffffffffffffffffffffffffff167f3eb666eb67b17b0b053c52c753afeaf2408427aa6fa5268ad87e7d60d313326860405160405180910390a2565b60007f000000000000000000000000000000000000000000000000000000000000000073ffffffffffffffffffffffffffffffffffffffff16635d3b1d307f00000000000000000000000000000000000000000000000000000000000000007f000000000000000000000000000000000000000000000000000000000000000060037f000000000000000000000000000000000000000000000000000000000000000060036040518663ffffffff1660e01b8152600401610456959493929190610a4b565b6020604051808303816000875af1158015610475573d6000803e3d6000fd5b505050506040513d601f19601f820116820180604052508101906104999190610ab3565b9050807febf56642252004c18a776f30d528e7a0ce8c5db14b6596fb6550f630c8a24c6c60405160405180910390a250565b60008082815481106104e0576104df610ae0565b5b9060005260206000200160009054906101000a900473ffffffffffffffffffffffffffffffffffffffff169050919050565b60008080549050905090565b600080805490508260008151811061053957610538610ae0565b5b602002602001015161054b9190610b3e565b9050600080828154811061056257610561610ae0565b5b9060005260206000200160009054906101000a900473ffffffffffffffffffffffffffffffffffffffff16905080600160006101000a81548173ffffffffffffffffffffffffffffffffffffffff021916908373ffffffffffffffffffffffffffffffffffffffff16021790555060008173ffffffffffffffffffffffffffffffffffffffff16476040516105f690610ba0565b60006040518083038185875af1925050503d8060008114610633576040519150601f19603f3d011682016040523d82523d6000602084013e610638565b606091505b5050905080610673576040517f1c94012000000000000000000000000000000000000000000000000000000000815260040160405180910390fd5b8173ffffffffffffffffffffffffffffffffffffffff167f5b690ec4a06fe979403046eaeea5b3ce38524683c3001f662c8b5a829632f7df60405160405180910390a25050505050565b6000819050919050565b6106d0816106bd565b82525050565b60006020820190506106eb60008301846106c7565b92915050565b6000604051905090565b600080fd5b600080fd5b61070e816106bd565b811461071957600080fd5b50565b60008135905061072b81610705565b92915050565b600080fd5b6000601f19601f8301169050919050565b7f4e487b7100000000000000000000000000000000000000000000000000000000600052604160045260246000fd5b61077f82610736565b810181811067ffffffffffffffff8211171561079e5761079d610747565b5b80604052505050565b60006107b16106f1565b90506107bd8282610776565b919050565b600067ffffffffffffffff8211156107dd576107dc610747565b5b602082029050602081019050919050565b600080fd5b6000610806610801846107c2565b6107a7565b90508083825260208201905060208402830185811115610829576108286107ee565b5b835b81811015610852578061083e888261071c565b84526020840193505060208101905061082b565b5050509392505050565b600082601f83011261087157610870610731565b5b81356108818482602086016107f3565b91505092915050565b600080604083850312156108a1576108a06106fb565b5b60006108af8582860161071c565b925050602083013567ffffffffffffffff8111156108d0576108cf610700565b5b6108dc8582860161085c565b9150509250929050565b600073ffffffffffffffffffffffffffffffffffffffff82169050919050565b6000610911826108e6565b9050919050565b61092181610906565b82525050565b600060208201905061093c6000830184610918565b92915050565b600060208284031215610958576109576106fb565b5b60006109668482850161071c565b91505092915050565b60006040820190506109846000830185610918565b6109916020830184610918565b9392505050565b6000819050919050565b6109ab81610998565b82525050565b600067ffffffffffffffff82169050919050565b6109ce816109b1565b82525050565b600061ffff82169050919050565b6109eb816109d4565b82525050565b600063ffffffff82169050919050565b610a0a816109f1565b82525050565b6000819050919050565b6000610a35610a30610a2b846109d4565b610a10565b6109f1565b9050919050565b610a4581610a1a565b82525050565b600060a082019050610a6060008301886109a2565b610a6d60208301876109c5565b610a7a60408301866109e2565b610a876060830185610a01565b610a946080830184610a3c565b9695505050505050565b600081519050610aad81610705565b92915050565b600060208284031215610ac957610ac86106fb565b5b6000610ad784828501610a9e565b91505092915050565b7f4e487b7100000000000000000000000000000000000000000000000000000000600052603260045260246000fd5b7f4e487b7100000000000000000000000000000000000000000000000000000000600052601260045260246000fd5b6000610b49826106bd565b9150610b54836106bd565b925082610b6457610b63610b0f565b5b828206905092915050565b600081905092915050565b50565b6000610b8a600083610b6f565b9150610b9582610b7a565b600082019050919050565b6000610bab82610b7d565b915081905091905056fea264697066735822122097e39be0db3915b6903fb4e62298070879e711fe07461a75b67ad423effe239b64736f6c63430008110033",
  "linkReferences": {},
  "deployedLinkReferences": {}
}